{
  "_format": "hh-sol-artifact-1",
  "contractName": "ProductChainTracking",
  "sourceName": "contracts/Product_chain_trackin.sol",
  "abi": [
    {
      "anonymous": false,
      "inputs": [
        {
          "indexed": false,
          "internalType": "uint256",
          "name": "productId",
          "type": "uint256"
        },
        {
          "indexed": false,
          "internalType": "string",
          "name": "name",
          "type": "string"
        },
        {
          "indexed": false,
          "internalType": "string",
          "name": "manufacturer",
          "type": "string"
        },
        {
          "indexed": false,
          "internalType": "address",
          "name": "owner",
          "type": "address"
        }
      ],
      "name": "ProductRegistered",
      "type": "event"
    },
    {
      "anonymous": false,
      "inputs": [
        {
          "indexed": false,
          "internalType": "uint256",
          "name": "productId",
          "type": "uint256"
        },
        {
          "indexed": false,
          "internalType": "address",
          "name": "from",
          "type": "address"
        },
        {
          "indexed": false,
          "internalType": "address",
          "name": "to",
          "type": "address"
        },
        {
          "indexed": false,
          "internalType": "string",
          "name": "newLocation",
          "type": "string"
        }
      ],
      "name": "ProductTransferred",
      "type": "event"
    },
    {
      "inputs": [],
      "name": "getAllProduct",
      "outputs": [
        {
          "components": [
            {
              "internalType": "uint256",
              "name": "id",
              "type": "uint256"
            },
            {
              "internalType": "string",
              "name": "name",
              "type": "string"
            },
            {
              "internalType": "string",
              "name": "manufacturer",
              "type": "string"
            },
            {
              "internalType": "string",
              "name": "currentLocation",
              "type": "string"
            },
            {
              "internalType": "uint256",
              "name": "timestamp",
              "type": "uint256"
            },
            {
              "internalType": "address",
              "name": "owner",
              "type": "address"
            }
          ],
          "internalType": "struct ProductChainTracking.Product[]",
          "name": "",
          "type": "tuple[]"
        }
      ],
      "stateMutability": "view",
      "type": "function"
    },
    {
      "inputs": [
        {
          "internalType": "uint256",
          "name": "_productId",
          "type": "uint256"
        }
      ],
      "name": "getProduct",
      "outputs": [
        {
          "components": [
            {
              "internalType": "uint256",
              "name": "id",
              "type": "uint256"
            },
            {
              "internalType": "string",
              "name": "name",
              "type": "string"
            },
            {
              "internalType": "string",
              "name": "manufacturer",
              "type": "string"
            },
            {
              "internalType": "string",
              "name": "currentLocation",
              "type": "string"
            },
            {
              "internalType": "uint256",
              "name": "timestamp",
              "type": "uint256"
            },
            {
              "internalType": "address",
              "name": "owner",
              "type": "address"
            }
          ],
          "internalType": "struct ProductChainTracking.Product",
          "name": "",
          "type": "tuple"
        }
      ],
      "stateMutability": "view",
      "type": "function"
    },
    {
      "inputs": [],
      "name": "productCounter",
      "outputs": [
        {
          "internalType": "uint256",
          "name": "",
          "type": "uint256"
        }
      ],
      "stateMutability": "view",
      "type": "function"
    },
    {
      "inputs": [
        {
          "internalType": "uint256",
          "name": "",
          "type": "uint256"
        }
      ],
      "name": "products",
      "outputs": [
        {
          "internalType": "uint256",
          "name": "id",
          "type": "uint256"
        },
        {
          "internalType": "string",
          "name": "name",
          "type": "string"
        },
        {
          "internalType": "string",
          "name": "manufacturer",
          "type": "string"
        },
        {
          "internalType": "string",
          "name": "currentLocation",
          "type": "string"
        },
        {
          "internalType": "uint256",
          "name": "timestamp",
          "type": "uint256"
        },
        {
          "internalType": "address",
          "name": "owner",
          "type": "address"
        }
      ],
      "stateMutability": "view",
      "type": "function"
    },
    {
      "inputs": [
        {
          "internalType": "string",
          "name": "_name",
          "type": "string"
        },
        {
          "internalType": "string",
          "name": "_manufacturer",
          "type": "string"
        },
        {
          "internalType": "string",
          "name": "_currentLocation",
          "type": "string"
        }
      ],
      "name": "registerProduct",
      "outputs": [],
      "stateMutability": "nonpayable",
      "type": "function"
    },
    {
      "inputs": [
        {
          "internalType": "uint256",
          "name": "_productId",
          "type": "uint256"
        },
        {
          "internalType": "address",
          "name": "_newOwner",
          "type": "address"
        },
        {
          "internalType": "string",
          "name": "_newLocation",
          "type": "string"
        }
      ],
      "name": "transferProduct",
      "outputs": [],
      "stateMutability": "nonpayable",
      "type": "function"
    }
  ],
  "bytecode": "0x6080604052348015600f57600080fd5b506117cd8061001f6000396000f3fe608060405234801561001057600080fd5b50600436106100625760003560e01c80631f16653b14610067578063293bb2c1146100855780633406b718146100a15780637acc0b20146100bd578063b9db15b4146100f2578063d055a75f14610122575b600080fd5b61006f610140565b60405161007c9190610c2f565b60405180910390f35b61009f600480360381019061009a9190610e2e565b610146565b005b6100bb60048036038101906100b69190610e9d565b6102a5565b005b6100d760048036038101906100d29190610f44565b61050a565b6040516100e996959493929190610fff565b60405180910390f35b61010c60048036038101906101079190610f44565b6106fe565b6040516101199190611174565b60405180910390f35b61012a61094b565b60405161013791906112ef565b60405180910390f35b60025481565b3373ffffffffffffffffffffffffffffffffffffffff166001600085815260200190815260200160002060050160009054906101000a900473ffffffffffffffffffffffffffffffffffffffff1673ffffffffffffffffffffffffffffffffffffffff16146101ea576040517f08c379a00000000000000000000000000000000000000000000000000000000081526004016101e190611383565b60405180910390fd5b816001600085815260200190815260200160002060050160006101000a81548173ffffffffffffffffffffffffffffffffffffffff021916908373ffffffffffffffffffffffffffffffffffffffff1602179055508060016000858152602001908152602001600020600301908161026291906115af565b507f7b9954163fa07d871126e4bf9e86dd39a340304d4ffa6a8f7b5eae106152ee03833384846040516102989493929190611681565b60405180910390a1505050565b600260008154809291906102b8906116fc565b919050555060006040518060c0016040528060025481526020018581526020018481526020018381526020014281526020013373ffffffffffffffffffffffffffffffffffffffff16815250908060018154018082558091505060019003906000526020600020906006020160009091909190915060008201518160000155602082015181600101908161034c91906115af565b50604082015181600201908161036291906115af565b50606082015181600301908161037891906115af565b506080820151816004015560a08201518160050160006101000a81548173ffffffffffffffffffffffffffffffffffffffff021916908373ffffffffffffffffffffffffffffffffffffffff16021790555050506040518060c0016040528060025481526020018481526020018381526020018281526020014281526020013373ffffffffffffffffffffffffffffffffffffffff1681525060016000600254815260200190815260200160002060008201518160000155602082015181600101908161044591906115af565b50604082015181600201908161045b91906115af565b50606082015181600301908161047191906115af565b506080820151816004015560a08201518160050160006101000a81548173ffffffffffffffffffffffffffffffffffffffff021916908373ffffffffffffffffffffffffffffffffffffffff1602179055509050507f9c6f3080993917af3ab38b7e74759890e4a9907d04850fcd47b5ba128e790ac06002548484336040516104fd9493929190611744565b60405180910390a1505050565b6001602052806000526040600020600091509050806000015490806001018054610533906113d2565b80601f016020809104026020016040519081016040528092919081815260200182805461055f906113d2565b80156105ac5780601f10610581576101008083540402835291602001916105ac565b820191906000526020600020905b81548152906001019060200180831161058f57829003601f168201915b5050505050908060020180546105c1906113d2565b80601f01602080910402602001604051908101604052809291908181526020018280546105ed906113d2565b801561063a5780601f1061060f5761010080835404028352916020019161063a565b820191906000526020600020905b81548152906001019060200180831161061d57829003601f168201915b50505050509080600301805461064f906113d2565b80601f016020809104026020016040519081016040528092919081815260200182805461067b906113d2565b80156106c85780601f1061069d576101008083540402835291602001916106c8565b820191906000526020600020905b8154815290600101906020018083116106ab57829003601f168201915b5050505050908060040154908060050160009054906101000a900473ffffffffffffffffffffffffffffffffffffffff16905086565b610706610bca565b600160008381526020019081526020016000206040518060c00160405290816000820154815260200160018201805461073e906113d2565b80601f016020809104026020016040519081016040528092919081815260200182805461076a906113d2565b80156107b75780601f1061078c576101008083540402835291602001916107b7565b820191906000526020600020905b81548152906001019060200180831161079a57829003601f168201915b505050505081526020016002820180546107d0906113d2565b80601f01602080910402602001604051908101604052809291908181526020018280546107fc906113d2565b80156108495780601f1061081e57610100808354040283529160200191610849565b820191906000526020600020905b81548152906001019060200180831161082c57829003601f168201915b50505050508152602001600382018054610862906113d2565b80601f016020809104026020016040519081016040528092919081815260200182805461088e906113d2565b80156108db5780601f106108b0576101008083540402835291602001916108db565b820191906000526020600020905b8154815290600101906020018083116108be57829003601f168201915b50505050508152602001600482015481526020016005820160009054906101000a900473ffffffffffffffffffffffffffffffffffffffff1673ffffffffffffffffffffffffffffffffffffffff1673ffffffffffffffffffffffffffffffffffffffff16815250509050919050565b60606000805480602002602001604051908101604052809291908181526020016000905b82821015610bc157838290600052602060002090600602016040518060c0016040529081600082015481526020016001820180546109ac906113d2565b80601f01602080910402602001604051908101604052809291908181526020018280546109d8906113d2565b8015610a255780601f106109fa57610100808354040283529160200191610a25565b820191906000526020600020905b815481529060010190602001808311610a0857829003601f168201915b50505050508152602001600282018054610a3e906113d2565b80601f0160208091040260200160405190810160405280929190818152602001828054610a6a906113d2565b8015610ab75780601f10610a8c57610100808354040283529160200191610ab7565b820191906000526020600020905b815481529060010190602001808311610a9a57829003601f168201915b50505050508152602001600382018054610ad0906113d2565b80601f0160208091040260200160405190810160405280929190818152602001828054610afc906113d2565b8015610b495780601f10610b1e57610100808354040283529160200191610b49565b820191906000526020600020905b815481529060010190602001808311610b2c57829003601f168201915b50505050508152602001600482015481526020016005820160009054906101000a900473ffffffffffffffffffffffffffffffffffffffff1673ffffffffffffffffffffffffffffffffffffffff1673ffffffffffffffffffffffffffffffffffffffff16815250508152602001906001019061096f565b50505050905090565b6040518060c001604052806000815260200160608152602001606081526020016060815260200160008152602001600073ffffffffffffffffffffffffffffffffffffffff1681525090565b6000819050919050565b610c2981610c16565b82525050565b6000602082019050610c446000830184610c20565b92915050565b6000604051905090565b600080fd5b600080fd5b610c6781610c16565b8114610c7257600080fd5b50565b600081359050610c8481610c5e565b92915050565b600073ffffffffffffffffffffffffffffffffffffffff82169050919050565b6000610cb582610c8a565b9050919050565b610cc581610caa565b8114610cd057600080fd5b50565b600081359050610ce281610cbc565b92915050565b600080fd5b600080fd5b6000601f19601f8301169050919050565b7f4e487b7100000000000000000000000000000000000000000000000000000000600052604160045260246000fd5b610d3b82610cf2565b810181811067ffffffffffffffff82111715610d5a57610d59610d03565b5b80604052505050565b6000610d6d610c4a565b9050610d798282610d32565b919050565b600067ffffffffffffffff821115610d9957610d98610d03565b5b610da282610cf2565b9050602081019050919050565b82818337600083830152505050565b6000610dd1610dcc84610d7e565b610d63565b905082815260208101848484011115610ded57610dec610ced565b5b610df8848285610daf565b509392505050565b600082601f830112610e1557610e14610ce8565b5b8135610e25848260208601610dbe565b91505092915050565b600080600060608486031215610e4757610e46610c54565b5b6000610e5586828701610c75565b9350506020610e6686828701610cd3565b925050604084013567ffffffffffffffff811115610e8757610e86610c59565b5b610e9386828701610e00565b9150509250925092565b600080600060608486031215610eb657610eb5610c54565b5b600084013567ffffffffffffffff811115610ed457610ed3610c59565b5b610ee086828701610e00565b935050602084013567ffffffffffffffff811115610f0157610f00610c59565b5b610f0d86828701610e00565b925050604084013567ffffffffffffffff811115610f2e57610f2d610c59565b5b610f3a86828701610e00565b9150509250925092565b600060208284031215610f5a57610f59610c54565b5b6000610f6884828501610c75565b91505092915050565b600081519050919050565b600082825260208201905092915050565b60005b83811015610fab578082015181840152602081019050610f90565b60008484015250505050565b6000610fc282610f71565b610fcc8185610f7c565b9350610fdc818560208601610f8d565b610fe581610cf2565b840191505092915050565b610ff981610caa565b82525050565b600060c0820190506110146000830189610c20565b81810360208301526110268188610fb7565b9050818103604083015261103a8187610fb7565b9050818103606083015261104e8186610fb7565b905061105d6080830185610c20565b61106a60a0830184610ff0565b979650505050505050565b61107e81610c16565b82525050565b600082825260208201905092915050565b60006110a082610f71565b6110aa8185611084565b93506110ba818560208601610f8d565b6110c381610cf2565b840191505092915050565b6110d781610caa565b82525050565b600060c0830160008301516110f56000860182611075565b506020830151848203602086015261110d8282611095565b915050604083015184820360408601526111278282611095565b915050606083015184820360608601526111418282611095565b91505060808301516111566080860182611075565b5060a083015161116960a08601826110ce565b508091505092915050565b6000602082019050818103600083015261118e81846110dd565b905092915050565b600081519050919050565b600082825260208201905092915050565b6000819050602082019050919050565b600060c0830160008301516111da6000860182611075565b50602083015184820360208601526111f28282611095565b9150506040830151848203604086015261120c8282611095565b915050606083015184820360608601526112268282611095565b915050608083015161123b6080860182611075565b5060a083015161124e60a08601826110ce565b508091505092915050565b600061126583836111c2565b905092915050565b6000602082019050919050565b600061128582611196565b61128f81856111a1565b9350836020820285016112a1856111b2565b8060005b858110156112dd57848403895281516112be8582611259565b94506112c98361126d565b925060208a019950506001810190506112a5565b50829750879550505050505092915050565b60006020820190508181036000830152611309818461127a565b905092915050565b7f4f6e6c7920746865206f776e65722063616e207472616e73666572207468652060008201527f70726f6475637400000000000000000000000000000000000000000000000000602082015250565b600061136d602783610f7c565b915061137882611311565b604082019050919050565b6000602082019050818103600083015261139c81611360565b9050919050565b7f4e487b7100000000000000000000000000000000000000000000000000000000600052602260045260246000fd5b600060028204905060018216806113ea57607f821691505b6020821081036113fd576113fc6113a3565b5b50919050565b60008190508160005260206000209050919050565b60006020601f8301049050919050565b600082821b905092915050565b6000600883026114657fffffffffffffffffffffffffffffffffffffffffffffffffffffffffffffffff82611428565b61146f8683611428565b95508019841693508086168417925050509392505050565b6000819050919050565b60006114ac6114a76114a284610c16565b611487565b610c16565b9050919050565b6000819050919050565b6114c683611491565b6114da6114d2826114b3565b848454611435565b825550505050565b600090565b6114ef6114e2565b6114fa8184846114bd565b505050565b5b8181101561151e576115136000826114e7565b600181019050611500565b5050565b601f8211156115635761153481611403565b61153d84611418565b8101602085101561154c578190505b61156061155885611418565b8301826114ff565b50505b505050565b600082821c905092915050565b600061158660001984600802611568565b1980831691505092915050565b600061159f8383611575565b9150826002028217905092915050565b6115b882610f71565b67ffffffffffffffff8111156115d1576115d0610d03565b5b6115db82546113d2565b6115e6828285611522565b600060209050601f8311600181146116195760008415611607578287015190505b6116118582611593565b865550611679565b601f19841661162786611403565b60005b8281101561164f5784890151825560018201915060208501945060208101905061162a565b8683101561166c5784890151611668601f891682611575565b8355505b6001600288020188555050505b505050505050565b60006080820190506116966000830187610c20565b6116a36020830186610ff0565b6116b06040830185610ff0565b81810360608301526116c28184610fb7565b905095945050505050565b7f4e487b7100000000000000000000000000000000000000000000000000000000600052601160045260246000fd5b600061170782610c16565b91507fffffffffffffffffffffffffffffffffffffffffffffffffffffffffffffffff8203611739576117386116cd565b5b600182019050919050565b60006080820190506117596000830187610c20565b818103602083015261176b8186610fb7565b9050818103604083015261177f8185610fb7565b905061178e6060830184610ff0565b9594505050505056fea26469706673582212202c40cbd1c4500aff44fcfda83c8295c9471de7331c142b89457761aa6a46c7a064736f6c634300081c0033",
  "linkReferences": {},
  "deployedLinkReferences": {}
}